:100000000A128A11EB2FF301F40183120313051472
:100010000630F2001330F100AD30F000F00B0E2886
:10002000F10B0E28F20B0E2815288312031305106E
:100030000630F2001330F100AD30F000F00B1E2856
:10004000F10B1E28F20B1E2825280130F307031898
:10005000F40A0030F4077408803AFF0080307F0211
:10006000031D342803307302031C37283828052861
:1000700008007008F9007108F7007208F8004E28AF
:100080000130F3020030031CF403F4020130F907DD
:100090000130F7070318F80A0030F80773087404F2
:1000A0000319532854286928780883120313FF0082
:1000B000770884000A128A1500200A128A11F500B6
:1000C00079088400831300087506031968286928D5
:1000D000402873087404031D6E286F287228F001ED
:1000E000F1018928780883120313FF007708840040
:1000F0000A128A1500200A128A11F5007908840074
:1001000083130008F60075087602F000F101031C65
:10011000F1030800F501F31F8E288F289628F209B5
:10012000F309F20A0319F30A0130F500F11F9928C7
:100130009A289F28F009F109F00A0319F10A7008BA
:1001400071040319A428A528D2280130F400B1288D
:1001500001300310F00DF10DFF3E031DA928013001
:10016000F407F11FB428B528A82871087302031DED
:10017000BB2870087202031CBE28BF28C52870085F
:10018000F2027108031CF303F30201300310F10CB7
:10019000F00CFF3E031DC6280130F402031DD128D8
:1001A000D228B52875080319D628D728DC28F209E3
:1001B000F309F20A0319F30A7308F1007208F00058
:1001C000080000300A128A1561260A128A1134309A
:1001D000F500F130F400F40BEB28F50BEB28F028D8
:1001E00003300A128A1547260A128A110D30F500CB
:1001F000FB30F400F40BFA28F50BFA28FF28033043
:100200000A128A1547260A128A111D30F50091300C
:10021000F400F40B0929F50B092903300A128A1599
:1002200047260A128A1102300A128A1547260A1234
:100230008A1102300A128A1547260A128A110830DA
:100240000A128A1547260A128A1100300A128A15E4
:1002500047260A128A110C300A128A1547260A12FA
:100260008A1100300A128A1547260A128A110630AE
:100270000A128A1547260A128A110800F501F11F91
:10028000422943294A29F009F109F00A0319F10A20
:100290000130F500F31F4D294E295529F209F309C4
:1002A000F20A0319F30A0130F506F601F7017008A6
:1002B000710403195C295D2992290130F400692930
:1002C00001300310F00DF10DFF3E031D61290130D7
:1002D000F407F11F6C296D29602901300310F60D18
:1002E000F70DFF3E031D6E2971087302031D7A2965
:1002F00070087202031C7D297E2985297008F2028C
:100300007108031CF303F302761401300310F10C9F
:10031000F00CFF3E031D86290130F402031D9129D4
:1003200092296D2975080319962997299C29F609A0
:10033000F709F60A0319F70A7708F1007608F000C2
:1003400008000A128A1510260A128A11F401F40A0A
:1003500001300A128A156E270A128A116C30F500D4
:100360008830F6000A128A152C270A128A11831285
:100370000313E401E501FC290A128A1116230A126B
:100380008A11FC0030307C02031CC729C829ED29E2
:100390003A307C020318CD29CE29ED2983120313AC
:1003A0006408D43E84007C08831380000130E40795
:1003B0000318E50A0030E5076408F40002300A1269
:1003C0008A156E270A128A110130F5008930F6006D
:1003D0000A128A152C270A128A110330831203137A
:1003E000BC000830BB007630BA00BA0BF529BB0B55
:1003F000F529BC0BF5290000831203136508803A28
:10040000FF0080307F02031D072A05306402031CB1
:100410000A2A0B2ABC2908000A128A1510260A1279
:100420008A11F401F40A01300A128A156E270A12A1
:100430008A11C830F5008830F6000A128A152C2778
:100440000A128A11F401F40A02300A128A156E2780
:100450000A128A11EB30F5008830F6000A128A156C
:100460002C270A128A11103083120313A20039308C
:10047000A1000D30A000A00B3B2AA10B3B2AA20B30
:100480003B2A0A128A1510260A128A11F401F40A6C
:1004900001300A128A156E270A128A11DB30F50024
:1004A0008830F6000A128A152C270A128A11F401E4
:1004B000F40A02300A128A156E270A128A11FA30DB
:1004C000F5008830F6000A128A152C270A128A11C4
:1004D000103083120313A2003930A1000D30A000A8
:1004E000A00B702AA10B702AA20B702A0A128A157F
:1004F00010260A128A110800720873040319812A4F
:10050000822A882A72087304031D872A882A8F2A60
:1005100070080A128A1507260A128A11152B72080A
:10052000093EF40073080318013E003EF50074080C
:1005300084008317751C83130008F600840A0008E2
:10054000F700760877040319A62AA72AD92A720881
:10055000093EF40073080318013E003EF5007408DC
:1005600084008317751C83130008F600840A0008B2
:10057000F7007208023EF80073080318013E003EBF
:10058000F900780884008317791C83130008FA00A7
:10059000840A0008FB007B08803AFC007708803A58
:1005A0007C02031DD52A76087A020318D82AD92A94
:1005B000152B720884008317731C83130008F40042
:1005C000840A0008F5007208023EF600730803185A
:1005D000013E003EF700760884008317771C8313E2
:1005E00000087407F9007508F8000318F80A801F5E
:1005F000FA2AF8037808FA007908840083177A1C2D
:100600008313700880007208023EF4007308031818
:10061000013E003EF500740884008317751C8313A7
:1006200001308007840A0318800A0800831203132C
:10063000B801B9013908803AFF0080307F02031DFC
:10064000232B04303802031C262B272B282B0C2CA1
:100650000130F00083120313380A302B0310F00D21
:10066000FF3E031D2E2B70088600061E382B392BEB
:10067000692B3808390403193E2B3F2B632B3803B1
:1006800039040319442B452B5A2B02303806390400
:1006900003194B2B4C2B512B3130A4000030A500FB
:1006A000552B3230A4000030A5002508A3002408F3
:1006B000A2005E2B3330A2000030A3002308A1006B
:1006C0002208A000672B4130A0000030A1002008C4
:1006D0000D2C861E6C2B6D2B9D2B380839040319AD
:1006E000722B732B972B380339040319782B792B32
:1006F0008E2B02303806390403197F2B802B852B73
:100700003430AA000030AB00892B3530AA0000300D
:10071000AB002B08A9002A08A800922B3630A800AD
:100720000030A9002908A7002808A6009B2B42300A
:10073000A6000030A70026080D2C061FA02BA12B19
:10074000D12B380839040319A62BA72BCB2B380340
:1007500039040319AC2BAD2BC22B023038063904F7
:100760000319B32BB42BB92B3730B0000030B100D4
:10077000BD2B3830B0000030B1003108AF00300878
:10078000AE00C62B3930AE000030AF002F08AD00F0
:100790002E08AC00CF2B4330AC000030AD002C084D
:1007A0000D2C861FD42BD52B052C380839040319A2
:1007B000DA2BDB2BFF2B380339040319E02BE12B59
:1007C000F62B0230380639040319E72BE82BED2B02
:1007D0002A30B6000030B700F12B3030B6000030C0
:1007E000B7003708B5003608B400FA2B2330B40040
:1007F0000030B5003508B3003408B200032C443093
:10080000B2000030B30032080D2C0130B8070318D5
:10081000B90A0030B9071A2B0030080083120313FD
:100820002208840083130008A400840A0008A5009D
:100830002508FF00240884000A128A1500200A12E5
:100840008A11253A031D252C262C432D22088400CD
:10085000013083138007840A0318800A8316031368
:10086000C001C101003083120313EE00FF30831674
:100870000313C200FF30C300831203132208840055
:100880000008A400840A0008A5002508FF00240829
:1008900084000A128A1500200A128A11633A031D85
:1008A000522C532C762C22088400013083138007AD
:1008B000840A0318800A230884000008FF0002301D
:1008C00080077F0884000008AF002F08A400A5015E
:1008D0002408F0002508F1002008F2002108F300A8
:1008E0000A128A117C220A128A11642D22088400BD
:1008F00083130008A900840A00088403AA002A08B8
:10090000FF00290884000A128A1500200A128A11A1
:10091000643A03198C2C8D2C9B2C2A08FF00290883
:1009200084000A128A1500200A128A11693A031DEE
:100930009A2C9B2C382D2308840083130008FF0079
:10094000023080077F0884000008AB00840A00089A
:10095000AC000130A40024082907A6002A08A5003D
:100960000318A50AA41BA5032508A70022088400D4
:10097000260880002708840A800084032030AF0006
:10098000AC1BC32CC52C0130C62C0030A800013094
:10099000AF022F08A03E84000A30F0000030F100C2
:1009A0002C08F3002B08F2000A128A118A200A127E
:1009B0008A117108F7007008F6000A128A151D26C0
:1009C0000A128A117608303E831380000A30F00044
:1009D0000030F100831203132C08F3002B08F200FF
:1009E0000A128A113E210A128A1171088312031316
:1009F000AC007008AB002B082C040319002D012D4E
:100A0000062D2F08031D052D062DC72C2F080319B1
:100A10000A2D0B2D312D280803190F2D102D312DE6
:100A20000130AF022F08A03E84002D3083138000D8
:100A3000312D2F08A03E840083130008A400A501D7
:100A40002408F0002508F1002008F2002108F30036
:100A50000A128A117C220A128A11013083120313AE
:100A6000AF0720302F06031D362D372D192D642D8D
:100A70008312031322088400013083138007840A41
:100A80000318800A642D2208840083130008A40040
:100A9000840A0008A5002508FF00240884000A1223
:100AA0008A1500200A128A11A600A7012608F00064
:100AB0002708F1002008F2002108F3000A128A1129
:100AC0007C220A128A11382D08008316031385012F
:100AD000F0308600880187018312031385018601A7
:100AE00087010A128A1103200A128A118312031342
:100AF00005140A128A11E1200A128A110A128A15B3
:100B0000A8260A128A1183120313E101E201032EBF
:100B10000A128A11A1210A128A11D430F00012306F
:100B2000F1008830F2000530F3000030F4000A12C2
:100B30008A1139200A128A1170087104031DA12D2F
:100B4000A22DCD2D0A128A1510260A128A11F4013F
:100B5000F40A01300A128A156E270A128A11E3304C
:100B6000F5008830F6000A128A152C270A128A111D
:100B70000B3083120313D0002630CF005D30CE003F
:100B8000CE0BC02DCF0BC02DD00BC02D013083124A
:100B90000313E1000030E200F12D0A128A1510263D
:100BA0000A128A11F401F40A01300A128A156E271A
:100BB0000A128A11A530F5008830F6000A128A154B
:100BC0002C270A128A110B3083120313D00026300F
:100BD000CF005D30CE00CE0BEB2DCF0BEB2DD00B2D
:100BE000EB2DD430F0000030F100F2000530F300BE
:100BF0000030F4000A128A152E260A128A11831276
:100C00000313E401E501610862040319082E092EAB
:100C1000882D0A128A110C220A128A110A128A15C8
:100C200010260A128A11F401F40A01300A128A15F8
:100C30006E270A128A11F330F5008830F6000A1286
:100C40008A152C270A128A11F401F40A02300A12BA
:100C50008A156E270A128A118A30F5008830F6004C
:100C60000A128A152C270A128A110A128A111623CF
:100C70000A128A1183120313E30041306306031939
:100C8000422E432E552E423063060319482E492E1C
:100C9000552E4330630603194E2E4F2E552E4430E9
:100CA0006306031D542E552E932E6308EF000A127F
:100CB0008A1510260A128A11F401F40A01300A1268
:100CC0008A156E270A128A11513083120313B70056
:100CD000D230B8008830B9006F08CE00CF014E087E
:100CE000BA004F08BB000A128A1583260A128A111D
:100CF0005130F5000030F6000A128A152C270A122E
:100D00008A11F401F40A02300A128A156E270A12B7
:100D10008A119830F5008830F6000A128A152C27BF
:100D20000A128A11D82F23306306031D982E992E9C
:100D3000282F6F0803199D2E9E2E032F41306F061A
:100D4000031DA32EA42EAB2E0130EC070318ED0AD1
:100D50000030ED07D22E42306F06031DB02EB12EAB
:100D6000B82E0130EA070318EB0A0030EB07D22E49
:100D700043306F06031DBD2EBE2EC52E0130E80781
:100D80000318E90A0030E907D22E44306F06031D2C
:100D9000CA2ECB2ED22E0130E6070318E70A003008
:100DA000E707D22E0A128A1510260A128A11F401B8
:100DB000F40A01300A128A156E270A128A112B30A2
:100DC000F5008830F6000A128A152C270A128A11BB
:100DD000831203130715153083120313D0004B3011
:100DE000CF00BD30CE00CE0BF32ECF0BF32ED00BA9
:100DF000F32EFA2E8312031307110A128A15B6274F
:100E00000A128A11092E0A128A1510260A128A114C
:100E1000F401F40A01300A128A156E270A128A11A7
:100E20003C30F5008830F6000A128A152C270A1289
:100E30008A110B3083120313D0002630CF005D30AF
:100E4000CE00CE0B212FCF0B212FD00B212F092E1F
:100E50002A306306031D2D2F2E2FBC2F0A128A1550
:100E600010260A128A11F401F40A01300A128A15B6
:100E70006E270A128A115D30F5008830F6000A12DA
:100E80008A152C270A128A110A128A11A1210A1224
:100E90008A11D430F0001230F1008830F2000530B1
:100EA000F3000030F4000A128A1139200A128A1164
:100EB00070087104031D5D2F5E2FA52F0A128A157D
:100EC00010260A128A11F401F40A01300A128A1556
:100ED0006E270A128A11C43083120313B700173029
:100EE000B8008830B9006D08BB006C08BA006B0808
:100EF000BD006A08BC006908BF006808BE0067083A
:100F0000C1006608C0000A128A1583260A128A11D7
:100F1000C430F5000030F6000A128A152C270A1298
:100F20008A11333083120313D000BB30CF00DF307F
:100F3000CE00CE0B992FCF0B992FD00B992F0A12E1
:100F40008A15B6270A128A11092E0A128A15102646
:100F50000A128A11F401F40A01300A128A156E2766
:100F60000A128A11B130F5008830F6000A128A158B
:100F70002C270A128A11192F63080319C02FC12FB9
:100F8000D82F0A128A1510260A128A11F401F40ABF
:100F900001300A128A156E270A128A113C30F500B8
:100FA0008830F6000A128A152C270A128A11192F86
:100FB000033083120313D0000830CF007630CE0008
:100FC000CE0BE02FCF0BE02FD00BE02F0000352E03
:100FD0000A128A11002883136430840070300A12C8
:100FE0008A1508260A128A11A0308400D9300A1204
:100FF0008A1508260A128A1183010A128A11652DA0
:10100000FF1B0A2883137F1883170008840A03191B
:10101000FF0A08007F087F398A000408840A031940
:10102000FF0A8200383430343034383435344134B7
:101030003A3425346434203442343A342534643428
:10104000203443343A3425346434203444343A343C
:101050002534643400345434683461346E346B3471
:101060007334203466346F347234203456346F3421
:10107000743465342134003449346E347634613448
:101080006C346934643420345234653473347034CD
:101090006F346E34733465340034203456344F3436
:1010A000543449344E34473420345334593453344F
:1010B000543445344D342034003445346E34743463
:1010C00065347234203456346F34743465342034CB
:1010D000503449344E34003445346E3474346534FD
:1010E00072342034503449344E34203443346F3415
:1010F0006434653400345234653473347434613488
:1011000072347434203456346F34743469346E3429
:101110006734003441342D344434203474346F3413
:101120002034733465346C3465346334743400347F
:101130002334203474346F34203463346F346E3489
:101140006634693472346D34003449344E34563464
:1011500041344C34493444342034503449344E34CE
:10116000003449346E34763461346C346934643418
:101170002034503449344E340034503472346534A1
:101180007334733420343134203474346F34003485
:1011900041343A3420344B3447344F34543453348C
:1011A0004F34003456346F34743465343A34203458
:1011B00025346334003443343A34203445344B34DA
:1011C000493441340034573445344C3443344F347B
:1011D0004D344534003442343A3420344E344934AA
:1011E0004D344F34003456346F34743465343A34EB
:1011F0002034003444343A3420344C344F345534A1
:0612000000342A34003422
:101C0E00080064008001840A0406031900340406E7
:101C1E00092E00300A128A1547260A128A1501303B
:101C2E000A128A1547260A128A150800F71B202E5B
:101C3E00212E222E2D2E7609F8007709F900F80AAA
:101C4E000319F90A7808F6007908F70008007008F9
:101C5E00F500382E7508840071088313800001305A
:101C6E00F5070130F3020030031CF403F402730A8B
:101C7E00031D452E740A031D452E462E312E0800D7
:101C8E00F30083120313081173080A128A156126D2
:101C9E000A128A158312031388150B30F200623074
:101CAE00F100F10B582EF20B582E00008312031385
:101CBE0088110800F000701C652E662E6A2E8312A5
:101CCE00031308166D2E831203130812F01C702EC8
:101CDE00712E732E8816742E8812701D772E782E04
:101CEE007A2E08177B2E0813F01D7E2E7F2E812E46
:101CFE008817822E881308003A3083120313C2000D
:101D0E003708C3000030C400C501C601CC01CD01A7
:101D1E004330B0000030B1003808B2003908B300CB
:101D2E004230B4000A128A15CE260A128A15831280
:101D3E00031345083707FD007D08840083138001D7
:101D4E0008000A128A1510260A128A15F401F40ADE
:101D5E0001300A128A156E270A128A154D30F500C7
:101D6E008830F6000A128A152C270A128A151F309F
:101D7E0083120313A2007130A1001D30A000A00B2E
:101D8E00C62EA10BC62EA20BC62ECD2E0800831278
:101D9E0003133208B5003308B600E22E3008A00057
:101DAE003108A1003530A2003408A3000A128A11AE
:101DBE000E240A128A15831203133608FF00350803
:101DCE0084000A128A1500200A128A15003A031D91
:101DDE00F12EF22ED52EB001B1010800F4007408D8
:101DEE00F2000F30F2057408F300F030F3058312A1
:101DFE00031308157308F10004300310F10CFF3EB5
:101E0E00031D042F71080A128A1561260A128A15FB
:101E1E008312031388151A30F100F10B142F0000F2
:101E2E0083120313881172080A128A1561260A1288
:101E3E008A158312031388151A30F100F10B252F22
:101E4E0000008312031388110800FA01FB01512FC1
:101E5E007A087507F8007608F7000318F70AFA1FD4
:101E6E00392FF7037708F900790883120313FF005F
:101E7E00780884000A128A1500200A128A150A129E
:101E8E008A15F5260A128A150130FA070318FB0A7D
:101E9E000030FB077A087507F8007608F70003187C
:101EAE00F70AFA1F5B2FF7037708F90079088312F8
:101EBE000313FF00780884000A128A1500200A1204
:101ECE008A15003A031D6C2F6D2F2F2F0800F60078
:101EDE007603031D732F742F922F74087F3EF90023
:101EEE007908F50004300310F50CFF3E031D7A2F20
:101EFE007508F7007908F8000F30F80577080A1210
:101F0E008A1547260A128A1578080A128A15472654
:101F1E000A128A15B52F02307606031D972F982FB9
:101F2E00B52F7408BF3EF9007908F5000430031090
:101F3E00F50CFF3E031D9E2F7508F7007908F8007B
:101F4E000F30F80577080A128A1547260A128A15E5
:101F5E0078080A128A1547260A128A1508000A12EC
:101F6E008A1510260A128A15F401F40A01300A1293
:101F7E008A156E270A128A15BD30F5008830F600D4
:101F8E000A128A152C270A128A15F401F40A023055
:101F9E000A128A156E270A128A157B30F5008830D0
:101FAE00F6000A128A152C270A128A150A128A11AD
:101FBE0016230A128A15FC0031307C06031DE82F09
:101FCE00E92FEF2F0A128A15A8260A128A15FF2F5B
:101FDE00033083120313BC000830BB007630BA0006
:101FEE00BA0BF72FBB0BF72FBC0BF72F0000DD2F13
:021FFE000800D9
:02400E003B3F36
:00000001FF
